:100000000C9481000C94B2000C94B2000C94B200D9
:100010000C94B2000C94B2000C94B2000C94B20098
:100020000C94B2000C94B2000C94B2000C94B20088
:100030000C94B2000C94B2000C94B2000C94B20078
:100040000C94B2000C94B2000C94B2000C94B20068
:100050000C94B2000C94B2000C94B2000C94CB013E
:100060000C94B2000C94AA030C94D2020C94B2002B
:100070000C94B2000C94B2000C94B2000C94B20038
:100080000C94B2000C94B2000C94B2000C94B20028
:100090000C9477030C9493020C94B2000C94B2006D
:1000A0000C94B2000C94B2000C94B2000C94B20008
:1000B0000C94B2000C94B2000C94B2000C94B200F8
:1000C0000C94B2000C94B2000C94B2000C94440353
:1000D0000C9454020C94B2000C9411030C9415026D
:1000E0000C94B2000C9422010C9478010C9402013F
:1000F0000C943E010C94F7000C94DD030C94B500B5
:10010000DD0311241FBECFEFD1E2DEBFCDBF00E083
:100110000CBF12E0A0E0B2E0E2EBFDE000E00BBFBC
:1001200002C007900D92AC35B107D9F725E0ACE5D8
:10013000B2E001C01D92A331B207E1F710E0C1E8BF
:10014000D0E000E006C021970109802FFE010E9447
:10015000CF06C038D10780E00807A9F70E94B7048E
:100160000C94AB050C94000008950F931F93CF934C
:10017000DF93FC01A685B7858D01005C1F4FE80168
:100180008881998101968F739927AD014E5B5F4FEE
:10019000EA012881398128173907D1F3E80128813C
:1001A0003981A20FB31F6C93A685B785A05CBF4FA2
:1001B00011969C938E93A689B7892C9181E090E04B
:1001C000078C02C0880F991F0A94E2F7822B8C9348
:1001D00081E081A30488F589E02D8081806480839B
:1001E00081E090E0DF91CF911F910F910895FC0184
:1001F00081A1882329F0A489B5898C9186FFFBCF42
:1002000011A20895FC01A485B585FD01E05CFF4FB6
:10021000208131813296808191812817390779F0C8
:1002200080819181A80FB91F8C91208131812F5F2E
:100230003F4F2F7333273183208390E008958FEF52
:100240009FEF0895DC011C96ED91FC911D97DF0155
:10025000A05CBF4F2D913C91119712968D919C916E
:1002600011972817390739F08D919C91E80FF91FE4
:10027000808190E008958FEF9FEF0895FC01248521
:100280003585F901E05CFF4F8081918132962081B4
:100290003181821B930B8F73992708958BEE94E025
:1002A0000E943E0181E494E00E943E0187E993E0D0
:1002B0000E943E018DEE92E00C943E01FB01E05C59
:1002C000FF4F20813181DB01AE5BBF4F4D915C91CF
:1002D0002F5F3F4F2F7333274217530741F0408161
:1002E0005181DB01A40FB51F8C93318320830895C6
:1002F000CF92DF92EF92FF920F931F93CF93DF93F2
:100300006C01EB017B01E40EF51E00E010E0CE1560
:10031000DF0561F06991D601ED91FC910190F081CA
:10032000E02DC6011995080F191FF1CFC801DF9103
:10033000CF911F910F91FF90EF90DF90CF90089594
:100340000F931F93CF93DF93009779F0FC010190F7
:100350000020E9F73197AF01481B590BBC018BEE28
:1003600094E00E9478018C0102C000E010E06DE092
:100370008BEE94E00E94B500EC016AE08BEE94E015
:100380000E94B500C00FD11F8C0F9D1FDF91CF9130
:100390001F910F9108951F920F920FB60F92112483
:1003A0002F933F938F939F93AF93BF93809161025D
:1003B00090916202A0916302B09164023091600258
:1003C00023E0230F2D3720F40196A11DB11D05C098
:1003D00026E8230F0296A11DB11D20936002809391
:1003E000610290936202A0936302B09364028091D1
:1003F0005C0290915D02A0915E02B0915F02019655
:10040000A11DB11D80935C0290935D02A0935E02DA
:10041000B0935F02BF91AF919F918F913F912F91C8
:100420000F900FBE0F901F9018951F920F920FB64E
:100430000F9211240BB60F922F933F938F939F939C
:10044000EF93FF932091A5023091A6028091A7021D
:100450009091A8022817390731F4809131018F7DDE
:100460008093310114C0E091A702F091A802EB59EA
:10047000FD4F20818091A7029091A80201968F7371
:1004800099279093A8028093A70220933601FF91A9
:10049000EF919F918F913F912F910F900BBE0F90F5
:1004A0000FBE0F901F9018951F920F920FB60F92CC
:1004B00011240BB60F922F933F938F939F93EF933B
:1004C000FF9320914F0330915003809151039091FD
:1004D00052032817390731F48091D1008F7D809322
:1004E000D10014C0E0915103F0915203E15FFC4F41
:1004F0002081809151039091520301968F73992727
:1005000090935203809351032093D600FF91EF9173
:100510009F918F913F912F910F900BBE0F900FBE27
:100520000F901F9018951F920F920FB60F921124E3
:100530000BB60F922F933F938F939F93EF93FF935D
:100540002091F9033091FA038091FB039091FC0311
:100550002817390731F48091C9008F7D8093C90035
:1005600014C0E091FB03F091FC03E754FC4F2081A1
:100570008091FB039091FC0301968F7399279093D0
:10058000FC038093FB032093CE00FF91EF919F919A
:100590008F913F912F910F900BBE0F900FBE0F9038
:1005A0001F9018951F920F920FB60F9211240BB641
:1005B0000F922F933F938F939F93EF93FF932091ED
:1005C000A3043091A4048091A5049091A604281757
:1005D000390731F48091C1008F7D8093C10014C030
:1005E000E091A504F091A604ED59FB4F2081809184
:1005F000A5049091A60401968F7399279093A60461
:100600008093A5042093C600FF91EF919F918F9155
:100610003F912F910F900BBE0F900FBE0F901F9028
:1006200018951F920F920FB60F9211240BB60F92CE
:100630002F933F934F935F936F937F938F939F93EA
:10064000AF93BF93EF93FF938091300182FD07C07A
:100650008091360169EA72E00E945E0102C08091D9
:100660003601FF91EF91BF91AF919F918F917F9153
:100670006F915F914F913F912F910F900BBE0F9013
:100680000FBE0F901F9018951F920F920FB60F92EA
:1006900011240BB60F922F933F934F935F936F9359
:1006A0007F938F939F93AF93BF93EF93FF9380912B
:1006B000D00082FD07C08091D60063E573E00E9400
:1006C0005E0102C08091D600FF91EF91BF91AF9182
:1006D0009F918F917F916F915F914F913F912F915A
:1006E0000F900BBE0F900FBE0F901F9018951F928A
:1006F0000F920FB60F9211240BB60F922F933F93C8
:100700004F935F936F937F938F939F93AF93BF9319
:10071000EF93FF938091C80082FD07C08091CE00C7
:100720006DEF73E00E945E0102C08091CE00FF91E8
:10073000EF91BF91AF919F918F917F916F915F9159
:100740004F913F912F910F900BBE0F900FBE0F90C6
:100750001F9018951F920F920FB60F9211240BB68F
:100760000F922F933F934F935F936F937F938F934A
:100770009F93AF93BF93EF93FF938091C00082FD4F
:1007800007C08091C60067EA74E00E945E0102C063
:100790008091C600FF91EF91BF91AF919F918F9192
:1007A0007F916F915F914F913F912F910F900BBE71
:1007B0000F900FBE0F901F901895CF92DF92EF927F
:1007C000FF92EBEEF4E01382128288EEC82E83E0F3
:1007D000D82EE12CF12CC482D582E682F7826AE021
:1007E00072E07183608387EA94E09587848783E66B
:1007F00094E09787868785EC90E0918B808B84ECE2
:1008000090E0938B828B80EC90E0958B848B81ECD5
:1008100090E0978B868B82EC90E0918F808F86ECB6
:1008200090E0938F828F44E0448F33E0358F27E050
:10083000268F95E0978F81E080A3E1E4F4E01382B6
:100840001282C482D582E682F78271836083ADEF23
:10085000B3E0B587A487A9EBB3E0B787A687ADEC73
:10086000B0E0B18BA08BACECB0E0B38BA28BA8EC6A
:10087000B0E0B58BA48BA9ECB0E0B78BA68BAAEC4B
:10088000B0E0B18FA08FAEECB0E0B38FA28F448FF9
:10089000358F268F978F80A3E7E9F3E013821282CA
:1008A000C482D582E682F78271836083A3E5B3E0D8
:1008B000B587A487AFE0B3E0B787A687A5EDB0E022
:1008C000B18BA08BA4EDB0E0B38BA28BA0EDB0E018
:1008D000B58BA48BA1EDB0E0B78BA68BA2EDB0E0F9
:1008E000B18FA08FA6EDB0E0B38FA28F448F358F6C
:1008F000268F978F80A3EDEEF2E013821282C482DE
:10090000D582E682F7827183608369EA72E0758737
:10091000648765E672E07787668765E371E0718BCF
:10092000608B64E371E0738B628B60E371E0758BC5
:10093000648B61E371E0778B668B62E371E0718FAA
:10094000608F66E371E0738F628F448F358F268FDF
:10095000978F80A380E091E00E94AE0590930E05F2
:1009600080930D05FF90EF90DF90CF9008957894DD
:1009700084B5826084BD84B5816084BD85B58260A4
:1009800085BD85B5816085BD80916E008160809355
:100990006E001092810080918100826080938100BE
:1009A00080918100816080938100809180008160CE
:1009B000809380008091B10084608093B100809129
:1009C000B00081608093B00080919100826080933C
:1009D00091008091910081608093910080919000BE
:1009E0008160809390008091A10082608093A1003B
:1009F0008091A10081608093A1008091A00081601E
:100A00008093A000809121018260809321018091D8
:100A10002101816080932101809120018160809378
:100A2000200180917A00846080937A0080917A001E
:100A3000826080937A0080917A00816080937A004E
:100A400080917A00806880937A001092C100E091D2
:100A5000FF04F091000581E090E09C0100900B05FF
:100A600002C0220F331F0A94E2F72083E091FB04B7
:100A7000F091FC041082E091FD04F091FE042FEC53
:100A8000208310920C05E0910105F0910205408150
:100A90009C010090070502C0220F331F0A94E2F761
:100AA000242B2083E0910105F091020540819C01F7
:100AB0000090080502C0220F331F0A94E2F7242B8E
:100AC0002083E0910105F091020540819C01009096
:100AD000090502C0220F331F0A94E2F7242B20835A
:100AE000E0910105F0910205208100900A0502C005
:100AF000880F991F0A94E2F780958223808386E10C
:100B000092E00E94A0018EE192E00E94A00180E4A8
:100B100092E00E94A001E0910D05F0910E05108277
:100B20008BEE94E00E943E01892B91F08BEE94E0D5
:100B30000E940201813461F4C5E0D0E088E492E0D3
:100B40000E94A0012197D1F78EE492E00E94A001BB
:100B50000E944E01E5CFF8940C94D7060F931F9393
:100B6000CF93DF938230910510F482E090E0E09122
:100B70001105F091120520E030E0A0E0B0E03097E0
:100B800019F1408151810281138148175907C8F03A
:100B90008417950769F4109731F012960C93129709
:100BA00013961C9327C0009311051093120522C0C1
:100BB0002115310519F04217530718F49A01BD01A8
:100BC000EF01DF01F801DBCF21153105F9F0281B1A
:100BD000390B2430310580F48A819B8161157105C0
:100BE00021F0FB019383828304C0909312058093CC
:100BF0001105FE01329644C0FE01E20FF31F8193FE
:100C0000919322503109398328833AC020910F05EE
:100C100030911005232B41F4209102023091030200
:100C20003093100520930F052091000230910102AE
:100C30002115310541F42DB73EB740910402509182
:100C40000502241B350BE0910F05F0911005E2170A
:100C5000F307A0F42E1B3F0B2817390778F0AC01DF
:100C60004E5F5F4F2417350748F04E0F5F1F5093BC
:100C7000100540930F058193919302C0E0E0F0E0EE
:100C8000CF01DF91CF911F910F910895CF93DF9303
:100C9000009709F481C0FC01329713821282A0915F
:100CA0001105B0911205109781F420813181820FD6
:100CB000931F20910F05309110052817390751F522
:100CC000F0931005E0930F0567C0ED0120E030E0E0
:100CD000CE17DF0740F44A815B819E014115510523
:100CE000F1F0EA01F5CFD383C28340815181840FB3
:100CF000951FC817D90759F488819981840F951FCA
:100D00000296918380838A819B81938382832115BC
:100D1000310529F4F0931205E09311053DC0E90176
:100D2000FB83EA8349915991C40FD51FEC17FD0746
:100D300061F480819181840F951F0296E901998366
:100D40008883828193819B838A83E0E0F0E012961E
:100D50008D919C911397009719F0FD01DC01F7CF5D
:100D60008D919C9111979D012E5F3F4F820F931F94
:100D700020910F05309110052817390769F4309735
:100D800029F4109212051092110502C013821282EA
:100D9000B0931005A0930F05DF91CF910895EE0F4A
:100DA000FF1F881F8BBF0790F691E02D1994F894D0
:020DB000FFCF73
:100DB20000001305200000000000B50078013E018C
:100DC20002012201F7005048415345303100436C83
:100DD20069656E742073696465206973207761693F
:100DE20074696E6720666F7220696E7075742E006A
:100DF200504841534530320068656C6C6F00696E33
:0C0E02002061726475696E6F20696600E3
:00000001FF
