:100000000C9481000C94B2000C94B2000C94B200D9
:100010000C94B2000C94B2000C94B2000C94B20098
:100020000C94B2000C94B2000C94B2000C94B20088
:100030000C94B2000C94B2000C94B2000C94B20078
:100040000C94B2000C94B2000C94B2000C94B20068
:100050000C94B2000C94B2000C94B2000C94B40353
:100060000C94B2000C9481030C94A9020C94B2007D
:100070000C94B2000C94B2000C94B2000C94B20038
:100080000C94B2000C94B2000C94B2000C94B20028
:100090000C944E030C946A020C94B2000C94B200BF
:1000A0000C94B2000C94B2000C94B2000C94B20008
:1000B0000C94B2000C94B2000C94B2000C94B200F8
:1000C0000C94B2000C94B2000C94B2000C941B037C
:1000D0000C942B020C94B2000C94E8020C94EC01EA
:1000E0000C94B2000C94FE030C94F7000C94B50031
:1000F0000C9468010C9422010C9402010C943E01B2
:10010000FE0311241FBECFEFD1E2DEBFCDBF00E062
:100110000CBF12E0A0E0B2E0E4E7FBE000E00BBFC0
:1001200002C007900D92A031B107D9F724E0A0E1F9
:10013000B2E001C01D92A13CB207E1F710E0C1E8B6
:10014000D0E000E006C021970109802FFE010E9447
:10015000B005C038D10780E00807A9F70E94D00495
:100160000C948B050C94000008950F931F93CF936C
:10017000DF93FC01A685B7858D01005C1F4FE80168
:100180008881998101968F739927AD014E5B5F4FEE
:10019000EA012881398128173907D1F3E80128813C
:1001A0003981A20FB31F6C93A685B785A05CBF4FA2
:1001B00011969C938E93A689B7892C9181E090E04B
:1001C000078C02C0880F991F0A94E2F7822B8C9348
:1001D00081E081A30488F589E02D8081806480839B
:1001E00081E090E0DF91CF911F910F910895FC0184
:1001F00081A1882329F0A489B5898C9186FFFBCF42
:1002000011A20895FC01A485B585FD01E05CFF4FB6
:10021000208131813296808191812817390779F0C8
:1002200080819181A80FB91F8C91208131812F5F2E
:100230003F4F2F7333273183208390E008958FEF52
:100240009FEF0895DC011C96ED91FC911D97DF0155
:10025000A05CBF4F2D913C91119712968D919C916E
:1002600011972817390739F08D919C91E80FF91FE4
:10027000808190E008958FEF9FEF0895FC01248521
:100280003585F901E05CFF4F8081918132962081B4
:100290003181821B930B8F7399270895FB01E05CDA
:1002A000FF4F20813181DB01AE5BBF4F4D915C91EF
:1002B0002F5F3F4F2F7333274217530741F0408181
:1002C0005181DB01A40FB51F8C93318320830895E6
:1002D000CF92DF92EF92FF920F931F93CF93DF9312
:1002E0006C01EB017B01E40EF51E00E010E0CE1581
:1002F000DF0561F06991D601ED91FC910190F081EB
:10030000E02DC6011995080F191FF1CFC801DF9123
:10031000CF911F910F91FF90EF90DF90CF900895B4
:100320008F929F92AF92BF92EF92FF920F931F9383
:10033000CF93DF93CDB7DEB7A1970FB6F894DEBFAA
:100340000FBECDBF162F042F19A2423008F40AE0C9
:100350007E0121E2E20EF11C802E912CA12CB12C09
:10036000612FA50194010E948E05029F101911248E
:1003700081E0E81AF1081A3014F4105D01C0195C2C
:10038000F7011083122F732FCA01232B242B252B47
:1003900039F7E114F10469F001900020E9F7319791
:1003A000AF014E195F09B7018FE994E00E9468011F
:1003B00002C080E090E0A1960FB6F894DEBF0FBEB9
:1003C000CDBFDF91CF911F910F91FF90EF90BF9024
:1003D000AF909F908F9008951F920F920FB60F923B
:1003E00011240BB60F922F933F938F939F93EF930C
:1003F000FF932091590230915A0280915B029091B3
:100400005C022817390731F4809131018F7D809388
:10041000310114C0E0915B02F0915C02E75EFD4F98
:10042000208180915B0290915C0201968F739927E5
:1004300090935C0280935B0220933601FF91EF91D1
:100440009F918F913F912F910F900BBE0F900FBEF8
:100450000F901F9018951F920F920FB60F921124B4
:100460000BB60F922F933F938F939F93EF93FF932E
:1004700020910303309104038091050390910603BA
:100480002817390731F48091D1008F7D8093D100F6
:1004900014C0E0910503F0910603ED53FD4F208158
:1004A000809105039091060301968F73992790938D
:1004B0000603809305032093D600FF91EF919F914F
:1004C0008F913F912F910F900BBE0F900FBE0F9009
:1004D0001F9018951F920F920FB60F9211240BB612
:1004E0000F922F933F938F939F93EF93FF932091BE
:1004F000AD033091AE038091AF039091B003281704
:10050000390731F48091C9008F7D8093C90014C0F0
:10051000E091AF03F091B003E359FC4F208180914B
:10052000AF039091B00301968F7399279093B00316
:100530008093AF032093CE00FF91EF919F918F9115
:100540003F912F910F900BBE0F900FBE0F901F90F9
:1005500018951F920F920FB60F9211240BB60F929F
:100560002F933F938F939F93EF93FF932091570483
:10057000309158048091590490915A0428173907F2
:1005800031F48091C1008F7D8093C10014C0E0914F
:100590005904F0915A04E95EFB4F2081809159047F
:1005A00090915A0401968F73992790935A048093DF
:1005B00059042093C600FF91EF919F918F913F9135
:1005C0002F910F900BBE0F900FBE0F901F9018959C
:1005D0001F920F920FB60F9211240BB60F922F930A
:1005E0003F934F935F936F937F938F939F93AF93BB
:1005F000BF93EF93FF938091300182FD07C08091FC
:1006000036016DE572E00E944E0102C08091360114
:10061000FF91EF91BF91AF919F918F917F916F91DA
:100620005F914F913F912F910F900BBE0F900FBE96
:100630000F901F9018951F920F920FB60F921124D2
:100640000BB60F922F933F934F935F936F937F93CC
:100650008F939F93AF93BF93EF93FF938091D000BD
:1006600082FD07C08091D60067E073E00E944E01D2
:1006700002C08091D600FF91EF91BF91AF919F9101
:100680008F917F916F915F914F913F912F910F903B
:100690000BBE0F900FBE0F901F9018951F920F92D8
:1006A0000FB60F9211240BB60F922F933F934F93D7
:1006B0005F936F937F938F939F93AF93BF93EF93CA
:1006C000FF938091C80082FD07C08091CE0061EB4E
:1006D00073E00E944E0102C08091CE00FF91EF9125
:1006E000BF91AF919F918F917F916F915F914F914A
:1006F0003F912F910F900BBE0F900FBE0F901F9048
:1007000018951F920F920FB60F9211240BB60F92ED
:100710002F933F934F935F936F937F938F939F9309
:10072000AF93BF93EF93FF938091C00082FD07C00A
:100730008091C6006BE574E00E944E0102C080917A
:10074000C600FF91EF91BF91AF919F918F917F91E3
:100750006F915F914F913F912F910F900BBE0F9032
:100760000FBE0F901F9018951F920F920FB60F9209
:1007700011242F933F938F939F93AF93BF938091B7
:10078000150290911602A0911702B09118023091B3
:10079000140223E0230F2D3720F40196A11DB11D73
:1007A00005C026E8230F0296A11DB11D2093140257
:1007B0008093150290931602A0931702B09318022B
:1007C0008091100290911102A0911202B091130237
:1007D0000196A11DB11D8093100290931102A09368
:1007E0001202B0931302BF91AF919F918F913F91ED
:1007F0002F910F900FBE0F901F901895CF92DF9200
:10080000EF92FF92EFE9F4E01382128288EEC82E95
:1008100083E0D82EE12CF12CC482D582E682F782C7
:1008200064E072E0718360838BE594E09587848750
:1008300087E194E09787868785EC90E0918B808BA9
:1008400084EC90E0938B828B80EC90E0958B848B92
:1008500081EC90E0978B868B82EC90E0918F808F7B
:1008600086EC90E0938F828F44E0448F33E0358FA5
:1008700027E0268F95E0978F81E080A3E5EFF3E0F6
:1008800013821282C482D582E682F78271836083EA
:10089000A1EBB3E0B587A487ADE6B3E0B787A68741
:1008A000ADECB0E0B18BA08BACECB0E0B38BA28B25
:1008B000A8ECB0E0B58BA48BA9ECB0E0B78BA68B0D
:1008C000AAECB0E0B18FA08FAEECB0E0B38FA28FF6
:1008D000448F358F268F978F80A3EBE4F3E013824C
:1008E0001282C482D582E682F78271836083A7E098
:1008F000B3E0B587A487A3ECB2E0B787A687A5EDE0
:10090000B0E0B18BA08BA4EDB0E0B38BA28BA0EDD7
:10091000B0E0B58BA48BA1EDB0E0B78BA68BA2EDB8
:10092000B0E0B18FA08FA6EDB0E0B38FA28F448F5F
:10093000358F268F978F80A3E1EAF2E0138212822F
:10094000C482D582E682F782718360836DE572E0AE
:100950007587648769E172E07787668765E371E090
:10096000718B608B64E371E0738B628B60E371E089
:10097000758B648B61E371E0778B668B62E371E06A
:10098000718F608F66E371E0738F628F448F358F54
:10099000268F978F80A3FF90EF90DF90CF900895E0
:1009A000789484B5826084BD84B5816084BD85B54A
:1009B000826085BD85B5816085BDEEE6F0E0808111
:1009C00081608083E1E8F0E0108280818260808332
:1009D000808181608083E0E8F0E0808181608083B5
:1009E000E1EBF0E0808184608083E0EBF0E08081E7
:1009F00081608083E1E9F0E0808182608083808192
:100A000081608083E0E9F0E0808181608083E1EAB9
:100A1000F0E0808182608083808181608083E0EA71
:100A2000F0E0808181608083E1E2F1E0808182609A
:100A30008083808181608083E0E2F1E08081816059
:100A40008083EAE7F0E08081846080838081826037
:100A50008083808181608083808180688083109220
:100A6000C100EFE9F4E0A489B58981E090E09C0140
:100A700000A002C0220F331F0A94E2F72C93A08932
:100A8000B1891C92A289B3892FEC2C9311A2A6895B
:100A9000B7894C919C01048C02C0220F331F0A9429
:100AA000E2F7242B2C93A689B7894C919C01058CE5
:100AB00002C0220F331F0A94E2F7242B2C93A6893D
:100AC000B7894C919C01068C02C0220F331F0A94F7
:100AD000E2F7242B2C93A689B7892C91078C02C0AE
:100AE000880F991F0A94E2F7809582238C934AE03D
:100AF00065E070E080E090E00E9490016DE08FE999
:100B000094E00E94B5006AE08FE994E00E94B5008D
:100B100080E090E00895F8940C94B805A1E21A2EB4
:100B2000AA1BBB1BFD010DC0AA1FBB1FEE1FFF1F91
:100B3000A217B307E407F50720F0A21BB30BE40BE1
:100B4000F50B661F771F881F991F1A9469F7609528
:100B50007095809590959B01AC01BD01CF010895E2
:100B6000EE0FFF1F881F8BBF0790F691E02D1994A1
:040B7000F894FFCF27
:100B740000000000B50068013E0102012201F700F7
:00000001FF
